{
  "_format": "hh-sol-artifact-1",
  "contractName": "Rename",
  "sourceName": "contracts/Rename.sol",
  "abi": [
    {
      "inputs": [],
      "name": "callAPI",
      "outputs": [],
      "stateMutability": "view",
      "type": "function"
    },
    {
      "inputs": [],
      "name": "executeContract",
      "outputs": [],
      "stateMutability": "view",
      "type": "function"
    }
  ],
  "bytecode": "0x608060405234801561001057600080fd5b5061023b806100206000396000f3fe608060405234801561001057600080fd5b50600436106100365760003560e01c8063847785d41461003b578063aedb1c8f14610045575b600080fd5b61004361004f565b005b61004d61008f565b005b61008d6040518060400160405280600f81526020017f3e3e3e2043616c6c696e67204150490000000000000000000000000000000000815250610091565b565b565b610127816040516024016100a591906101e3565b6040516020818303038152906040527f41304fac000000000000000000000000000000000000000000000000000000007bffffffffffffffffffffffffffffffffffffffffffffffffffffffff19166020820180517bffffffffffffffffffffffffffffffffffffffffffffffffffffffff838183161783525050505061012a565b50565b60008151905060006a636f6e736f6c652e6c6f679050602083016000808483855afa5050505050565b600081519050919050565b600082825260208201905092915050565b60005b8381101561018d578082015181840152602081019050610172565b60008484015250505050565b6000601f19601f8301169050919050565b60006101b582610153565b6101bf818561015e565b93506101cf81856020860161016f565b6101d881610199565b840191505092915050565b600060208201905081810360008301526101fd81846101aa565b90509291505056fea2646970667358221220c058f82fdbda08c5825d1b35b8ec4ad43f847a4bc3fc3445ed6404b4a19d3c9564736f6c63430008110033",
  "linkReferences": {},
  "deployedLinkReferences": {}
}