{
  "_format": "hh-sol-artifact-1",
  "contractName": "Token",
  "sourceName": "contracts/Token.sol",
  "abi": [
    {
      "inputs": [],
      "stateMutability": "nonpayable",
      "type": "constructor"
    },
    {
      "anonymous": false,
      "inputs": [
        {
          "indexed": true,
          "internalType": "address",
          "name": "owner",
          "type": "address"
        },
        {
          "indexed": true,
          "internalType": "address",
          "name": "spender",
          "type": "address"
        },
        {
          "indexed": false,
          "internalType": "uint256",
          "name": "value",
          "type": "uint256"
        }
      ],
      "name": "Approval",
      "type": "event"
    },
    {
      "anonymous": false,
      "inputs": [
        {
          "indexed": true,
          "internalType": "address",
          "name": "from",
          "type": "address"
        },
        {
          "indexed": true,
          "internalType": "address",
          "name": "to",
          "type": "address"
        },
        {
          "indexed": false,
          "internalType": "uint256",
          "name": "value",
          "type": "uint256"
        }
      ],
      "name": "Transfer",
      "type": "event"
    },
    {
      "anonymous": false,
      "inputs": [],
      "name": "TransferFailure",
      "type": "event"
    },
    {
      "anonymous": false,
      "inputs": [],
      "name": "TransferPending",
      "type": "event"
    },
    {
      "anonymous": false,
      "inputs": [],
      "name": "TransferSuccess",
      "type": "event"
    },
    {
      "inputs": [
        {
          "internalType": "address",
          "name": "owner",
          "type": "address"
        },
        {
          "internalType": "address",
          "name": "spender",
          "type": "address"
        }
      ],
      "name": "allowance",
      "outputs": [
        {
          "internalType": "uint256",
          "name": "",
          "type": "uint256"
        }
      ],
      "stateMutability": "view",
      "type": "function"
    },
    {
      "inputs": [
        {
          "internalType": "address",
          "name": "spender",
          "type": "address"
        },
        {
          "internalType": "uint256",
          "name": "amount",
          "type": "uint256"
        }
      ],
      "name": "approve",
      "outputs": [
        {
          "internalType": "bool",
          "name": "",
          "type": "bool"
        }
      ],
      "stateMutability": "nonpayable",
      "type": "function"
    },
    {
      "inputs": [
        {
          "internalType": "address",
          "name": "account",
          "type": "address"
        }
      ],
      "name": "balanceOf",
      "outputs": [
        {
          "internalType": "uint256",
          "name": "",
          "type": "uint256"
        }
      ],
      "stateMutability": "view",
      "type": "function"
    },
    {
      "inputs": [],
      "name": "decimals",
      "outputs": [
        {
          "internalType": "uint8",
          "name": "",
          "type": "uint8"
        }
      ],
      "stateMutability": "view",
      "type": "function"
    },
    {
      "inputs": [
        {
          "internalType": "address",
          "name": "spender",
          "type": "address"
        },
        {
          "internalType": "uint256",
          "name": "subtractedValue",
          "type": "uint256"
        }
      ],
      "name": "decreaseAllowance",
      "outputs": [
        {
          "internalType": "bool",
          "name": "",
          "type": "bool"
        }
      ],
      "stateMutability": "nonpayable",
      "type": "function"
    },
    {
      "inputs": [],
      "name": "getTotalSupply",
      "outputs": [
        {
          "internalType": "uint256",
          "name": "",
          "type": "uint256"
        }
      ],
      "stateMutability": "view",
      "type": "function"
    },
    {
      "inputs": [
        {
          "internalType": "address",
          "name": "spender",
          "type": "address"
        },
        {
          "internalType": "uint256",
          "name": "addedValue",
          "type": "uint256"
        }
      ],
      "name": "increaseAllowance",
      "outputs": [
        {
          "internalType": "bool",
          "name": "",
          "type": "bool"
        }
      ],
      "stateMutability": "nonpayable",
      "type": "function"
    },
    {
      "inputs": [],
      "name": "name",
      "outputs": [
        {
          "internalType": "string",
          "name": "",
          "type": "string"
        }
      ],
      "stateMutability": "view",
      "type": "function"
    },
    {
      "inputs": [],
      "name": "publicBurn",
      "outputs": [],
      "stateMutability": "nonpayable",
      "type": "function"
    },
    {
      "inputs": [],
      "name": "publicMint",
      "outputs": [],
      "stateMutability": "nonpayable",
      "type": "function"
    },
    {
      "inputs": [],
      "name": "symbol",
      "outputs": [
        {
          "internalType": "string",
          "name": "",
          "type": "string"
        }
      ],
      "stateMutability": "view",
      "type": "function"
    },
    {
      "inputs": [],
      "name": "totalSupply",
      "outputs": [
        {
          "internalType": "uint256",
          "name": "",
          "type": "uint256"
        }
      ],
      "stateMutability": "view",
      "type": "function"
    },
    {
      "inputs": [
        {
          "internalType": "address",
          "name": "to",
          "type": "address"
        },
        {
          "internalType": "uint256",
          "name": "amount",
          "type": "uint256"
        }
      ],
      "name": "transfer",
      "outputs": [
        {
          "internalType": "bool",
          "name": "",
          "type": "bool"
        }
      ],
      "stateMutability": "nonpayable",
      "type": "function"
    },
    {
      "inputs": [
        {
          "internalType": "address",
          "name": "from",
          "type": "address"
        },
        {
          "internalType": "address",
          "name": "to",
          "type": "address"
        },
        {
          "internalType": "uint256",
          "name": "amount",
          "type": "uint256"
        }
      ],
      "name": "transferFrom",
      "outputs": [
        {
          "internalType": "bool",
          "name": "",
          "type": "bool"
        }
      ],
      "stateMutability": "nonpayable",
      "type": "function"
    }
  ],
  "bytecode": "0x60806040523480156200001157600080fd5b506040518060400160405280600581526020017f546f6b656e0000000000000000000000000000000000000000000000000000008152506040518060400160405280600381526020017f544b4e000000000000000000000000000000000000000000000000000000000081525081600390816200008f9190620006e0565b508060049081620000a19190620006e0565b505050620000bf3368056bc75e2d631000006200017a60201b60201c565b60003373ffffffffffffffffffffffffffffffffffffffff16319050620001276040518060400160405280601981526020017f4d696e74656420746f6b656e7320746f20616464726573733a0000000000000081525033620002e760201b620008881760201c565b620001736040518060400160405280601981526020017f42616c616e63653a202020202020202020202020202020202000000000000000815250826200038d60201b620009241760201c565b5062000a0d565b600073ffffffffffffffffffffffffffffffffffffffff168273ffffffffffffffffffffffffffffffffffffffff1603620001ec576040517f08c379a0000000000000000000000000000000000000000000000000000000008152600401620001e39062000828565b60405180910390fd5b62000200600083836200043360201b60201c565b806002600082825462000214919062000879565b92505081905550806000808473ffffffffffffffffffffffffffffffffffffffff1673ffffffffffffffffffffffffffffffffffffffff168152602001908152602001600020600082825401925050819055508173ffffffffffffffffffffffffffffffffffffffff16600073ffffffffffffffffffffffffffffffffffffffff167fddf252ad1be2c89b69c2b068fc378daa952ba7f163c4a11628f55a4df523b3ef83604051620002c79190620008c5565b60405180910390a3620002e3600083836200043860201b60201c565b5050565b62000389828260405160240162000300929190620009a5565b6040516020818303038152906040527f319af333000000000000000000000000000000000000000000000000000000007bffffffffffffffffffffffffffffffffffffffffffffffffffffffff19166020820180517bffffffffffffffffffffffffffffffffffffffffffffffffffffffff83818316178352505050506200043d60201b60201c565b5050565b6200042f8282604051602401620003a6929190620009d9565b6040516020818303038152906040527fb60e72cc000000000000000000000000000000000000000000000000000000007bffffffffffffffffffffffffffffffffffffffffffffffffffffffff19166020820180517bffffffffffffffffffffffffffffffffffffffffffffffffffffffff83818316178352505050506200043d60201b60201c565b5050565b505050565b505050565b60008151905060006a636f6e736f6c652e6c6f679050602083016000808483855afa5050505050565b600081519050919050565b7f4e487b7100000000000000000000000000000000000000000000000000000000600052604160045260246000fd5b7f4e487b7100000000000000000000000000000000000000000000000000000000600052602260045260246000fd5b60006002820490506001821680620004e857607f821691505b602082108103620004fe57620004fd620004a0565b5b50919050565b60008190508160005260206000209050919050565b60006020601f8301049050919050565b600082821b905092915050565b600060088302620005687fffffffffffffffffffffffffffffffffffffffffffffffffffffffffffffffff8262000529565b62000574868362000529565b95508019841693508086168417925050509392505050565b6000819050919050565b6000819050919050565b6000620005c1620005bb620005b5846200058c565b62000596565b6200058c565b9050919050565b6000819050919050565b620005dd83620005a0565b620005f5620005ec82620005c8565b84845462000536565b825550505050565b600090565b6200060c620005fd565b62000619818484620005d2565b505050565b5b8181101562000641576200063560008262000602565b6001810190506200061f565b5050565b601f82111562000690576200065a8162000504565b620006658462000519565b8101602085101562000675578190505b6200068d620006848562000519565b8301826200061e565b50505b505050565b600082821c905092915050565b6000620006b56000198460080262000695565b1980831691505092915050565b6000620006d08383620006a2565b9150826002028217905092915050565b620006eb8262000466565b67ffffffffffffffff81111562000707576200070662000471565b5b620007138254620004cf565b6200072082828562000645565b600060209050601f83116001811462000758576000841562000743578287015190505b6200074f8582620006c2565b865550620007bf565b601f198416620007688662000504565b60005b8281101562000792578489015182556001820191506020850194506020810190506200076b565b86831015620007b25784890151620007ae601f891682620006a2565b8355505b6001600288020188555050505b505050505050565b600082825260208201905092915050565b7f45524332303a206d696e7420746f20746865207a65726f206164647265737300600082015250565b600062000810601f83620007c7565b91506200081d82620007d8565b602082019050919050565b60006020820190508181036000830152620008438162000801565b9050919050565b7f4e487b7100000000000000000000000000000000000000000000000000000000600052601160045260246000fd5b600062000886826200058c565b915062000893836200058c565b9250828201905080821115620008ae57620008ad6200084a565b5b92915050565b620008bf816200058c565b82525050565b6000602082019050620008dc6000830184620008b4565b92915050565b60005b8381101562000902578082015181840152602081019050620008e5565b60008484015250505050565b6000601f19601f8301169050919050565b60006200092c8262000466565b620009388185620007c7565b93506200094a818560208601620008e2565b62000955816200090e565b840191505092915050565b600073ffffffffffffffffffffffffffffffffffffffff82169050919050565b60006200098d8262000960565b9050919050565b6200099f8162000980565b82525050565b60006040820190508181036000830152620009c181856200091f565b9050620009d2602083018462000994565b9392505050565b60006040820190508181036000830152620009f581856200091f565b905062000a066020830184620008b4565b9392505050565b611ae58062000a1d6000396000f3fe608060405234801561001057600080fd5b50600436106100ea5760003560e01c8063395093511161008c578063a457c2d711610066578063a457c2d71461023b578063a9059cbb1461026b578063c4e41b221461029b578063dd62ed3e146102b9576100ea565b806339509351146101bd57806370a08231146101ed57806395d89b411461021d576100ea565b806318160ddd116100c857806318160ddd1461014757806323b872dd1461016557806326092b8314610195578063313ce5671461019f576100ea565b806306fdde03146100ef578063095ea7b31461010d57806314f97b631461013d575b600080fd5b6100f76102e9565b60405161010491906111ed565b60405180910390f35b610127600480360381019061012291906112a8565b61037b565b6040516101349190611303565b60405180910390f35b61014561039e565b005b61014f6103b3565b60405161015c919061132d565b60405180910390f35b61017f600480360381019061017a9190611348565b6103bd565b60405161018c9190611303565b60405180910390f35b61019d6105bd565b005b6101a76105d2565b6040516101b491906113b7565b60405180910390f35b6101d760048036038101906101d291906112a8565b6105db565b6040516101e49190611303565b60405180910390f35b610207600480360381019061020291906113d2565b610612565b604051610214919061132d565b60405180910390f35b61022561065a565b60405161023291906111ed565b60405180910390f35b610255600480360381019061025091906112a8565b6106ec565b6040516102629190611303565b60405180910390f35b610285600480360381019061028091906112a8565b610763565b6040516102929190611303565b60405180910390f35b6102a3610786565b6040516102b0919061132d565b60405180910390f35b6102d360048036038101906102ce91906113ff565b610801565b6040516102e0919061132d565b60405180910390f35b6060600380546102f89061146e565b80601f01602080910402602001604051908101604052809291908181526020018280546103249061146e565b80156103715780601f1061034657610100808354040283529160200191610371565b820191906000526020600020905b81548152906001019060200180831161035457829003601f168201915b5050505050905090565b6000806103866109c0565b90506103938185856109c8565b600191505092915050565b6103b13368056bc75e2d63100000610b91565b565b6000600254905090565b6000808473ffffffffffffffffffffffffffffffffffffffff1631905060008473ffffffffffffffffffffffffffffffffffffffff163190506104356040518060400160405280600e81526020017f6265666f726546726f6d42616c3a00000000000000000000000000000000000081525083610924565b6104746040518060400160405280600e81526020017f6265666f7265546f42616c3a202000000000000000000000000000000000000081525082610924565b7f3a9c10845016e7baa8dd9135d87e0581fd48ed6c90fd65cf215fe3c93eae0e6860405160405180910390a17f41bff10501107ea6d629b2f2320bcb7430794ea0b36ecc79be9f42b3b8f3d55860405160405180910390a17ff7e6817a3c6a49cff6f48833f7ff66e57150cfa319cf4164219b13ea9bd079c460405160405180910390a160008673ffffffffffffffffffffffffffffffffffffffff1631905060008673ffffffffffffffffffffffffffffffffffffffff1631905061056f6040518060400160405280600d81526020017f616674657246726f6d42616c3a0000000000000000000000000000000000000081525083610924565b6105ae6040518060400160405280600d81526020017f6166746572546f42616c3a20200000000000000000000000000000000000000081525082610924565b60019450505050509392505050565b6105d03368056bc75e2d63100000610d5e565b565b60006012905090565b6000806105e66109c0565b90506106078185856105f88589610801565b61060291906114ce565b6109c8565b600191505092915050565b60008060008373ffffffffffffffffffffffffffffffffffffffff1673ffffffffffffffffffffffffffffffffffffffff168152602001908152602001600020549050919050565b6060600480546106699061146e565b80601f01602080910402602001604051908101604052809291908181526020018280546106959061146e565b80156106e25780601f106106b7576101008083540402835291602001916106e2565b820191906000526020600020905b8154815290600101906020018083116106c557829003601f168201915b5050505050905090565b6000806106f76109c0565b905060006107058286610801565b90508381101561074a576040517f08c379a000000000000000000000000000000000000000000000000000000000815260040161074190611574565b60405180910390fd5b61075782868684036109c8565b60019250505092915050565b60008061076e6109c0565b905061077b818585610eb4565b600191505092915050565b6000803090508073ffffffffffffffffffffffffffffffffffffffff166318160ddd6040518163ffffffff1660e01b8152600401602060405180830381865afa1580156107d7573d6000803e3d6000fd5b505050506040513d601f19601f820116820180604052508101906107fb91906115a9565b91505090565b6000600160008473ffffffffffffffffffffffffffffffffffffffff1673ffffffffffffffffffffffffffffffffffffffff16815260200190815260200160002060008373ffffffffffffffffffffffffffffffffffffffff1673ffffffffffffffffffffffffffffffffffffffff16815260200190815260200160002054905092915050565b610920828260405160240161089e9291906115e5565b6040516020818303038152906040527f319af333000000000000000000000000000000000000000000000000000000007bffffffffffffffffffffffffffffffffffffffffffffffffffffffff19166020820180517bffffffffffffffffffffffffffffffffffffffffffffffffffffffff838183161783525050505061112a565b5050565b6109bc828260405160240161093a929190611615565b6040516020818303038152906040527fb60e72cc000000000000000000000000000000000000000000000000000000007bffffffffffffffffffffffffffffffffffffffffffffffffffffffff19166020820180517bffffffffffffffffffffffffffffffffffffffffffffffffffffffff838183161783525050505061112a565b5050565b600033905090565b600073ffffffffffffffffffffffffffffffffffffffff168373ffffffffffffffffffffffffffffffffffffffff1603610a37576040517f08c379a0000000000000000000000000000000000000000000000000000000008152600401610a2e906116b7565b60405180910390fd5b600073ffffffffffffffffffffffffffffffffffffffff168273ffffffffffffffffffffffffffffffffffffffff1603610aa6576040517f08c379a0000000000000000000000000000000000000000000000000000000008152600401610a9d90611749565b60405180910390fd5b80600160008573ffffffffffffffffffffffffffffffffffffffff1673ffffffffffffffffffffffffffffffffffffffff16815260200190815260200160002060008473ffffffffffffffffffffffffffffffffffffffff1673ffffffffffffffffffffffffffffffffffffffff168152602001908152602001600020819055508173ffffffffffffffffffffffffffffffffffffffff168373ffffffffffffffffffffffffffffffffffffffff167f8c5be1e5ebec7d5bd14f71427d1e84f3dd0314c0f7b2291e5b200ac8c7c3b92583604051610b84919061132d565b60405180910390a3505050565b600073ffffffffffffffffffffffffffffffffffffffff168273ffffffffffffffffffffffffffffffffffffffff1603610c00576040517f08c379a0000000000000000000000000000000000000000000000000000000008152600401610bf7906117db565b60405180910390fd5b610c0c82600083611153565b60008060008473ffffffffffffffffffffffffffffffffffffffff1673ffffffffffffffffffffffffffffffffffffffff16815260200190815260200160002054905081811015610c92576040517f08c379a0000000000000000000000000000000000000000000000000000000008152600401610c899061186d565b60405180910390fd5b8181036000808573ffffffffffffffffffffffffffffffffffffffff1673ffffffffffffffffffffffffffffffffffffffff1681526020019081526020016000208190555081600260008282540392505081905550600073ffffffffffffffffffffffffffffffffffffffff168373ffffffffffffffffffffffffffffffffffffffff167fddf252ad1be2c89b69c2b068fc378daa952ba7f163c4a11628f55a4df523b3ef84604051610d45919061132d565b60405180910390a3610d5983600084611158565b505050565b600073ffffffffffffffffffffffffffffffffffffffff168273ffffffffffffffffffffffffffffffffffffffff1603610dcd576040517f08c379a0000000000000000000000000000000000000000000000000000000008152600401610dc4906118d9565b60405180910390fd5b610dd960008383611153565b8060026000828254610deb91906114ce565b92505081905550806000808473ffffffffffffffffffffffffffffffffffffffff1673ffffffffffffffffffffffffffffffffffffffff168152602001908152602001600020600082825401925050819055508173ffffffffffffffffffffffffffffffffffffffff16600073ffffffffffffffffffffffffffffffffffffffff167fddf252ad1be2c89b69c2b068fc378daa952ba7f163c4a11628f55a4df523b3ef83604051610e9c919061132d565b60405180910390a3610eb060008383611158565b5050565b600073ffffffffffffffffffffffffffffffffffffffff168373ffffffffffffffffffffffffffffffffffffffff1603610f23576040517f08c379a0000000000000000000000000000000000000000000000000000000008152600401610f1a9061196b565b60405180910390fd5b600073ffffffffffffffffffffffffffffffffffffffff168273ffffffffffffffffffffffffffffffffffffffff1603610f92576040517f08c379a0000000000000000000000000000000000000000000000000000000008152600401610f89906119fd565b60405180910390fd5b610f9d838383611153565b60008060008573ffffffffffffffffffffffffffffffffffffffff1673ffffffffffffffffffffffffffffffffffffffff16815260200190815260200160002054905081811015611023576040517f08c379a000000000000000000000000000000000000000000000000000000000815260040161101a90611a8f565b60405180910390fd5b8181036000808673ffffffffffffffffffffffffffffffffffffffff1673ffffffffffffffffffffffffffffffffffffffff16815260200190815260200160002081905550816000808573ffffffffffffffffffffffffffffffffffffffff1673ffffffffffffffffffffffffffffffffffffffff168152602001908152602001600020600082825401925050819055508273ffffffffffffffffffffffffffffffffffffffff168473ffffffffffffffffffffffffffffffffffffffff167fddf252ad1be2c89b69c2b068fc378daa952ba7f163c4a11628f55a4df523b3ef84604051611111919061132d565b60405180910390a3611124848484611158565b50505050565b60008151905060006a636f6e736f6c652e6c6f679050602083016000808483855afa5050505050565b505050565b505050565b600081519050919050565b600082825260208201905092915050565b60005b8381101561119757808201518184015260208101905061117c565b60008484015250505050565b6000601f19601f8301169050919050565b60006111bf8261115d565b6111c98185611168565b93506111d9818560208601611179565b6111e2816111a3565b840191505092915050565b6000602082019050818103600083015261120781846111b4565b905092915050565b600080fd5b600073ffffffffffffffffffffffffffffffffffffffff82169050919050565b600061123f82611214565b9050919050565b61124f81611234565b811461125a57600080fd5b50565b60008135905061126c81611246565b92915050565b6000819050919050565b61128581611272565b811461129057600080fd5b50565b6000813590506112a28161127c565b92915050565b600080604083850312156112bf576112be61120f565b5b60006112cd8582860161125d565b92505060206112de85828601611293565b9150509250929050565b60008115159050919050565b6112fd816112e8565b82525050565b600060208201905061131860008301846112f4565b92915050565b61132781611272565b82525050565b6000602082019050611342600083018461131e565b92915050565b6000806000606084860312156113615761136061120f565b5b600061136f8682870161125d565b93505060206113808682870161125d565b925050604061139186828701611293565b9150509250925092565b600060ff82169050919050565b6113b18161139b565b82525050565b60006020820190506113cc60008301846113a8565b92915050565b6000602082840312156113e8576113e761120f565b5b60006113f68482850161125d565b91505092915050565b600080604083850312156114165761141561120f565b5b60006114248582860161125d565b92505060206114358582860161125d565b9150509250929050565b7f4e487b7100000000000000000000000000000000000000000000000000000000600052602260045260246000fd5b6000600282049050600182168061148657607f821691505b6020821081036114995761149861143f565b5b50919050565b7f4e487b7100000000000000000000000000000000000000000000000000000000600052601160045260246000fd5b60006114d982611272565b91506114e483611272565b92508282019050808211156114fc576114fb61149f565b5b92915050565b7f45524332303a2064656372656173656420616c6c6f77616e63652062656c6f7760008201527f207a65726f000000000000000000000000000000000000000000000000000000602082015250565b600061155e602583611168565b915061156982611502565b604082019050919050565b6000602082019050818103600083015261158d81611551565b9050919050565b6000815190506115a38161127c565b92915050565b6000602082840312156115bf576115be61120f565b5b60006115cd84828501611594565b91505092915050565b6115df81611234565b82525050565b600060408201905081810360008301526115ff81856111b4565b905061160e60208301846115d6565b9392505050565b6000604082019050818103600083015261162f81856111b4565b905061163e602083018461131e565b9392505050565b7f45524332303a20617070726f76652066726f6d20746865207a65726f2061646460008201527f7265737300000000000000000000000000000000000000000000000000000000602082015250565b60006116a1602483611168565b91506116ac82611645565b604082019050919050565b600060208201905081810360008301526116d081611694565b9050919050565b7f45524332303a20617070726f766520746f20746865207a65726f20616464726560008201527f7373000000000000000000000000000000000000000000000000000000000000602082015250565b6000611733602283611168565b915061173e826116d7565b604082019050919050565b6000602082019050818103600083015261176281611726565b9050919050565b7f45524332303a206275726e2066726f6d20746865207a65726f2061646472657360008201527f7300000000000000000000000000000000000000000000000000000000000000602082015250565b60006117c5602183611168565b91506117d082611769565b604082019050919050565b600060208201905081810360008301526117f4816117b8565b9050919050565b7f45524332303a206275726e20616d6f756e7420657863656564732062616c616e60008201527f6365000000000000000000000000000000000000000000000000000000000000602082015250565b6000611857602283611168565b9150611862826117fb565b604082019050919050565b600060208201905081810360008301526118868161184a565b9050919050565b7f45524332303a206d696e7420746f20746865207a65726f206164647265737300600082015250565b60006118c3601f83611168565b91506118ce8261188d565b602082019050919050565b600060208201905081810360008301526118f2816118b6565b9050919050565b7f45524332303a207472616e736665722066726f6d20746865207a65726f20616460008201527f6472657373000000000000000000000000000000000000000000000000000000602082015250565b6000611955602583611168565b9150611960826118f9565b604082019050919050565b6000602082019050818103600083015261198481611948565b9050919050565b7f45524332303a207472616e7366657220746f20746865207a65726f206164647260008201527f6573730000000000000000000000000000000000000000000000000000000000602082015250565b60006119e7602383611168565b91506119f28261198b565b604082019050919050565b60006020820190508181036000830152611a16816119da565b9050919050565b7f45524332303a207472616e7366657220616d6f756e742065786365656473206260008201527f616c616e63650000000000000000000000000000000000000000000000000000602082015250565b6000611a79602683611168565b9150611a8482611a1d565b604082019050919050565b60006020820190508181036000830152611aa881611a6c565b905091905056fea26469706673582212206671bdce2a2c81bd8080bcfe7debc2d4c60bb01dc9e2204a808489ef227409d364736f6c63430008110033",
  "linkReferences": {},
  "deployedLinkReferences": {}
}