{
  "_format": "hh-sol-artifact-1",
  "contractName": "Wallet",
  "sourceName": "contracts/Wallet.sol",
  "abi": [
    {
      "inputs": [],
      "stateMutability": "nonpayable",
      "type": "constructor"
    },
    {
      "anonymous": false,
      "inputs": [],
      "name": "MintSmartTokensForTokens",
      "type": "event"
    },
    {
      "anonymous": false,
      "inputs": [
        {
          "indexed": true,
          "internalType": "address",
          "name": "sender",
          "type": "address"
        },
        {
          "indexed": false,
          "internalType": "uint256",
          "name": "amount",
          "type": "uint256"
        },
        {
          "indexed": false,
          "internalType": "uint256",
          "name": "balance",
          "type": "uint256"
        }
      ],
      "name": "Receive",
      "type": "event"
    },
    {
      "inputs": [],
      "name": "getBalance",
      "outputs": [
        {
          "internalType": "uint256",
          "name": "",
          "type": "uint256"
        }
      ],
      "stateMutability": "view",
      "type": "function"
    },
    {
      "inputs": [
        {
          "internalType": "address",
          "name": "_token",
          "type": "address"
        }
      ],
      "name": "getNumber",
      "outputs": [
        {
          "internalType": "int256",
          "name": "",
          "type": "int256"
        }
      ],
      "stateMutability": "pure",
      "type": "function"
    },
    {
      "inputs": [
        {
          "internalType": "address",
          "name": "_token",
          "type": "address"
        }
      ],
      "name": "mintSmartTokensForTokens",
      "outputs": [],
      "stateMutability": "nonpayable",
      "type": "function"
    },
    {
      "inputs": [],
      "name": "owner",
      "outputs": [
        {
          "internalType": "address payable",
          "name": "",
          "type": "address"
        }
      ],
      "stateMutability": "view",
      "type": "function"
    },
    {
      "stateMutability": "payable",
      "type": "receive"
    }
  ],
  "bytecode": "0x608060405234801561001057600080fd5b50336000806101000a81548173ffffffffffffffffffffffffffffffffffffffff021916908373ffffffffffffffffffffffffffffffffffffffff16021790555061047f806100606000396000f3fe6080604052600436106100435760003560e01c806312065fe01461009f578063609f30af146100ca5780638da5cb5b146100f3578063942ea4661461011e5761009a565b3661009a573373ffffffffffffffffffffffffffffffffffffffff167f7baf877f743c7240b0ee6b03d05a9d82c1d5b9c590beb886830f6f8edd07d88134476040516100909291906102ac565b60405180910390a2005b600080fd5b3480156100ab57600080fd5b506100b461015b565b6040516100c191906102d5565b60405180910390f35b3480156100d657600080fd5b506100f160048036038101906100ec9190610353565b610163565b005b3480156100ff57600080fd5b506101086101f2565b60405161011591906103a1565b60405180910390f35b34801561012a57600080fd5b5061014560048036038101906101409190610353565b610216565b60405161015291906103d5565b60405180910390f35b600047905090565b8073ffffffffffffffffffffffffffffffffffffffff16631249c58b6040518163ffffffff1660e01b8152600401600060405180830381600087803b1580156101ab57600080fd5b505af11580156101bf573d6000803e3d6000fd5b505050507f37cbc241ce82bd375b6bf6baab54838c229a2b43ad22127c80237293ad779ef960405160405180910390a150565b60008054906101000a900473ffffffffffffffffffffffffffffffffffffffff1681565b6000808273ffffffffffffffffffffffffffffffffffffffff1663f2c9ecd86040518163ffffffff1660e01b8152600401602060405180830381865afa158015610264573d6000803e3d6000fd5b505050506040513d601f19601f82011682018060405250810190610288919061041c565b905080915050919050565b6000819050919050565b6102a681610293565b82525050565b60006040820190506102c1600083018561029d565b6102ce602083018461029d565b9392505050565b60006020820190506102ea600083018461029d565b92915050565b600080fd5b600073ffffffffffffffffffffffffffffffffffffffff82169050919050565b6000610320826102f5565b9050919050565b61033081610315565b811461033b57600080fd5b50565b60008135905061034d81610327565b92915050565b600060208284031215610369576103686102f0565b5b60006103778482850161033e565b91505092915050565b600061038b826102f5565b9050919050565b61039b81610380565b82525050565b60006020820190506103b66000830184610392565b92915050565b6000819050919050565b6103cf816103bc565b82525050565b60006020820190506103ea60008301846103c6565b92915050565b6103f9816103bc565b811461040457600080fd5b50565b600081519050610416816103f0565b92915050565b600060208284031215610432576104316102f0565b5b600061044084828501610407565b9150509291505056fea2646970667358221220e5e4ad85c15d13941a7916334b899760f6d780b331dc29decf5cd43da628718364736f6c63430008110033",
  "linkReferences": {},
  "deployedLinkReferences": {}
}